:020000020000FC
:100000000C9447000C9446000C9446000C94460057
:100010000C9446000C9446000C9446000C94460048
:100020000C9446000C9446000C9446000C94460038
:100030000C9446000C9446000C9446000C94460028
:100040000C9446000C9446000C9446000C94460018
:100050000C9446000C9446000C9446000C94460008
:100060000C9446000C9446000C9446000C944600F8
:100070000C9446000C9446000C9446000C944600E8
:100080000C9446000C9446000C9446001895A8E089
:10009000D0E096E00FEF0DBF00E10EBFC4E100EF2E
:1000A00004BB04E107BB04E008BB00E002B900E1C7
:1000B00003B90FEF01BB0ABB00E501BF0BE603BFAD
:1000C00000E109BF02E00ABF04E007BF00E00FBD86
:1000D00001E00EBD789408E94AE301504040000079
:1000E000000000000000C9F701D024C068E384D0FC
:1000F00004E040E10150404000000000000000002A
:10010000C9F77AD004E640E001504040000000000A
:1001100000000000C9F770D06FD08CD068E06CD0C0
:1001200089D061E069D086D066E066D083D06CE08B
:1001300063D0089594D020D0523089F05430A1F08B
:100140005630A1F0583069F0503009F0F3CFC0E0DC
:1001500000E00C2F0B1B41B7400F41BFEBCFDA95EE
:10016000E9CFD3950C949A00AA95E4CFC0E0A3956B
:100170009A95E0CFC4E1DECFE89480F93FEE2227E4
:1001800035BB0FEF0A95F1F703B30F700F3059F03D
:1001900031E01127402F432311F410D0EFCF1395F6
:1001A000330F0C94CA00233031F00894331F239589
:1001B0000C94C000089580FBEEF3DECF233049F0AD
:1001C000133059F0012F000F010F020F03950C940B
:1001D000F8000AE0010F0C94F800203029F02130DB
:1001E00031F00FEF0C94F8000EE00C94F8000027AB
:1001F000502F689480F908950F9362BB00270BBBC2
:100200000000DA9A000000000000DA980000000008
:1002100000000F9108950F9362BB08E00BBB000034
:10022000DA9A000000000000DA98000000000000E8
:100230000F9108950F93002701BB02BB02E00BBB97
:100240000000DA9A00000000000000B3DA9807FD11
:10025000F7CF00270BBB0FEF01BB0F9108950027CD
:1002600000E0003001F0E6DF61E0C6DF6CE4E2DFD1
:10027000D2DF6AE3DFDFCFDF67E3DCDFCCDF60E222
:10028000D9DFC9DF63E4D6DFC6DF6AE3D3DFC3DFCC
:1002900000E3090F602FCEDFBEDF6CE7CBDFBBDFF3
:1002A000D03039F1D03004F1092F0C9488010C942E
:1002B0005901C0DF60ECA0DF63E5BCDFACDF6AE3BF
:1002C000B9DFA9DF60E2B6DFA6DF60E2B3DFA3DF5C
:1002D000C3E66C2F51D06CE7ADDF9DDF08E0D13075
:1002E00031F0D2305CF50895D0E00C949A0029D01A
:1002F000089508E026D0092F9F3F54F461E49ADF67
:100300008ADF0C94590161E495DF85DF0C94590173
:10031000003074F160E28EDF7EDF0A950130C4F7B1
:1003200027D00C945901089585DF60EC65DF0C94AB
:10033000A10180DF61E060DF0C94A101D1E00C94A9
:100340009A00A8308CF0A0318CF40A1739F40A17FF
:1003500009F0089563E46EDF5EDF089560E26ADF0E
:100360005ADF03950C94A101A8E0EBCFAFE0E9CFF1
:100370006FE660DF50DF0895062F442777270436A5
:1003800018F004567395FBCF0A3018F00A504395C5
:10039000FBCF672F05D0642F03D0602F01D00895C5
:0E03A0000F9300E3600F46DF36DF0F910895E4
:00000001FF
