:020000020000FC
:100000000C9423000C9422000C9422000C942200E7
:100010000C9422000C9422000C9422000C942200D8
:100020000C9422000C9422000C9422000C942200C8
:100030000C9422000C9422000C9422000C942200B8
:100040000C94B8001895F0E1FEBFEFEFEDBFC0E0F3
:10005000D1E010E030E00FEF07BB40E150E00FEFE0
:1000600001BB0ABB61D00CE4009300010AE30093DA
:10007000010102E30093020100E20093030103E4A3
:10008000009304010AE30093050103E300930601D2
:100090000CE70093070100E20093160100E20093D1
:1000A000170100E20093180100E20093190100E239
:1000B0000093200100E20093210100E2009322015D
:1000C00000E20093230100E20093240100E2009388
:1000D000250100E20093260100E20093270100E2DF
:1000E0000093280100E20093290100E2009330010F
:1000F00000E20093310103E5009308010AE3009355
:10010000090100E20093100100E20093110101E3F4
:100110000093120103E30093130107E3009314011A
:100120000CE700931501B7C068E3FBD004E020E1C1
:10013000015020400000000000000000C9F7F1D08D
:1001400004E620E001502040000000000000000014
:10015000C9F7E7D0E6D003D168E0E3D000D161E091
:10016000E0D0FDD066E0DDD0FAD06CE0DAD00895C2
:100170008FB78F93113619F4233219F40AC01395EF
:1001800005C03395343611F4239530E08F918FBF3D
:100190001895E5D061E0C5D010E020E030E04A9548
:1001A000F3D08091170180931601809118018093FC
:1001B00017018091190180931801809120018335E6
:1001C000B9F10C94E300809319018091210180938F
:1001D00020018091220180932101B0912301B093ED
:1001E0002201809125018093240180912601809332
:1001F0002501809127018093260180912801833574
:10020000A9F00C9403018093270180912901809328
:1002100028018091300180932901A0913101A093A0
:100220003001B03239F0B03281F5B0CF80E2EBCF9F
:1002300080E2C9CFA03211F0A03239F59DD16E30E5
:1002400040F06C3168F06D35C8F06E3980F00C9478
:10025000450163E56093230160E26093310196CF2D
:1002600063E56093310160E2609323018FCF6FE417
:100270006093230160E26093310188CF6FE4609363
:10028000310160E26093230181CF60E2609323013A
:10029000609331017BCF02E003BF01E007BF789498
:1002A00001E3F9CFE89400F99FEE882795BB0FEFA3
:1002B0000A95F1F703B30F700F3059F091E07727EB
:1002C000202F292311F410D0EFCF7395990F0C94A0
:1002D0006001833031F00894991F83950C94560186
:1002E000089500FBEEF3DECF833049F0733059F010
:1002F000072F000F070F080F03950C948E010AE0DB
:10030000070F0C948E01803029F0813031F00FEF0F
:100310000C948E010EE00C948E010027689400F975
:1003200008950F9362BB00270BBB0000DA9A000010
:1003300000000000DA980000000000000F9108950E
:100340000F9362BB08E00BBB0000DA9A00000000CC
:100350000000DA980000000000000F9108950F934C
:10036000002701BB02BB02E00BBB0000DA9A0000D1
:100370000000000000B3DA9807FDF7CF00270BBBA1
:100380000FEF01BB0F910895002700E0003001F04E
:10039000E6DF61E0C6DF6CE4E2DFD2DF6AE3DFDFE5
:1003A000CFDF61E3DCDFCCDF60E2D9DFC9DF63E40C
:1003B000D6DFC6DF6AE3D3DFC3DF03E3602FCFDF1F
:1003C000BFDF6CE7CCDFBCDF02D00C940802609189
:1003D0001601C5DFB5DF60911701C1DFB1DF6091A4
:1003E0001801BDDFADDF60911901B9DFA9DF6091B0
:1003F0002001B5DFA5DF60912101B1DFA1DF6091B0
:100400002201ADDF9DDF60912301A9DF99DF08950F
:10041000A6DF60EC86DF63E5A2DF92DF6AE39FDFA1
:100420008FDF60E29CDF8CDF60E299DF89DF03E62B
:10043000602F60D06CE793DF83DF01D00895609177
:1004400024018DDF7DDF6091250189DF79DF6091F7
:10045000260185DF75DF6091270181DF71DF609103
:1004600028017DDF6DDF6091290179DF69DF60910F
:10047000300175DF65DF6091310171DF61DF089563
:1004800050E00C944B011BD0089508E018D00C9458
:10049000080260E264DF54DF0A950130D4F70C945F
:1004A000080208955CDF60EC3CDF0C945F0257DFCC
:1004B00061E037DF0C945F0251E00C944B0148304F
:1004C000ACF04031ACF4041759F4041709F0089566
:1004D0006FE445DF35DF089563E541DF31DF0895DF
:1004E00060E23DDF2DDF03950C945F020C9408025F
:1004F0004FE0E5CF062F2227043618F00456239547
:10050000FBCF2AD022270A3010F10A5023950A3057
:10051000F0F00A5023950A30D0F00A5023950A30A3
:10052000B0F00A5023950A3090F00A5023950A3013
:1005300070F00A5023950A3050F00A5023950A3083
:1005400030F00A5023950A3010F00A502395622F9C
:100550000BD0602F09D008950F93622F00E3600F36
:10056000FEDEEEDE0F9108950F9300E3600FF7DEDD
:10057000E7DE0F910895FFCF0F921F921F932F93E5
:100580003F934F935F93662703EC1EE926E230E02A
:10059000409100015DEF459F000D111D261F53E4A2
:1005A000459F100D211D361F53E0459F200D311D25
:1005B000409101015DEF459F100D211D361F53E451
:1005C000459F200D311D53E0459F300D40910201A4
:1005D0005DEF459F200D311D53E4459F300D409147
:1005E00003015DEF459F300D602F009300011093D4
:1005F00001012093020130930301032F220F001FFA
:100600005F914F913F912F911F911F900F900895EF
:00000001FF
